:020000040000FA
:1000000000008A110A12282983120313BC00FE0083
:10001000FF0000308A110A12D0218A110A128312BD
:100020000313BC00080083120313B6007F08B70057
:100030003608B800FE003908FF0000308A110A12A5
:10004000D0218A110A1283120313B6000030B900BE
:100050000130B8003708003C031935288312031318
:10006000B80DB90D013E031C2E2883120313360868
:10007000BA00BB0138083A05B800B60039083B059C
:10008000B9003708003C03194F28031083120313EB
:10009000B91B0314B90CB80C013E031C452883128C
:1000A00003133808B700080083120313B5007F0854
:1000B000FD003508FE00FF0000308A110A12C4213D
:1000C0008A110A12080083120313B100AF007F08DF
:1000D000B000B20180303107B100AF00B301B30D01
:1000E0000030B3073308B200B4013008031D85287F
:1000F0000030FD003108FE003208FF0034088A118C
:100100000A12C4218A110A12972883120313300895
:10011000013A031D9728FF30FD003108FE00320828
:10012000FF0034088A110A12C4218A110A12080039
:1001300083120313AB00A8007F08A9007E08AA0061
:10014000AD012B08FE002C08FF0000308A110A12B6
:10015000D0218A110A1283120313A8000130AE00C5
:100160002908003C0319BA2883120313AE0D013E7F
:10017000031CB42883120313AE09A8052A08AE0095
:100180002908003C0319CA2883120313AE0D013E4F
:10019000031CC428831203132E082804A900FD00A1
:1001A0002B08FE002C08FF002D088A110A12C4211A
:1001B0008A110A12080083120313A300A0007F080B
:1001C000A1007E08A200A40180302307A300A000A4
:1001D000A501A50D0030A507A6012308FE002508EE
:1001E000A400FF0000308A110A12D0218A110A12DD
:1001F00083120313A0000130A7002108003C03195B
:10020000072983120313A70D013E031C0129831242
:100210000313A709A0052208A7002108003C031921
:10022000172983120313A70D013E031C1129831202
:10023000031327082004A100FD002308FE00240862
:10024000FF0026088A110A12C4218A110A12080026
:100250002730FE000230FF0080308A110A12E321AD
:100260008A110A1283120313BE007F08BD002930D1
:10027000BF000230C000831203133D08C1003E08D6
:10028000C200FF30BD07031CBE034108420403192E
:10029000C02904303F07C100C201C20D4008C20797
:1002A0004108FE004208FF0080308A110A12E32153
:1002B0008A110A1283120313C4007F08C3003F0887
:1002C000FE004008FF0080308A110A12E3218A11E3
:1002D0000A1283120313C600C2007F08C500C100C2
:1002E00002303F07C100C201C20D4008C2074108E9
:1002F000FE004208FF0080308A110A12E3218A11B1
:100300000A1283120313C200C8007F08C100C7008D
:10031000831203134308C7004408C800FF30C30713
:10032000031CC403470848040319B9294508FE0003
:100330004608FF0080308A110A12D0218A110A1261
:1003400083120313C700410883120313840083132D
:100350008312031342188317470883120313800084
:1003600083120313C50A0319C60AC10A0319C20A74
:100370008829063083120313BF070318C00A3B29DC
:100380008A110A12042A0800003A0319C829080031
:100390007E08840083137F1883177D08800008007F
:1003A000003A0319D729803A0319DE2900347E0860
:1003B000840083137F188317000808007F088A00D1
:1003C0007E0882000800003A0319EB29803A0319DD
:1003D000F529FF0100347E08840083137F188317FA
:1003E0000008FF00840A000808008A110A12DE21B2
:1003F000FD00FE0FFF03FF0A8A110A12DE21FC0036
:100400007D08FF007C0808000030FF0006308A11DC
:100410000A1263208A110A120730FF0006308A117F
:100420000A1254208A110A1206308A110A12042074
:100430008A110A12073A031D142A0C30FF000630F5
:100440008A110A1254208A110A12142A080001344F
:1004500000342F3402344934003401340034003481
:02400E00323F3F
:00000001FF
